:020000040800F2
:1000000020050020010100080B130008351100082D
:100010000913000895010008711500080000000090
:100020000000000000000000000000002F13000886
:10003000A5010008000000002D130008311300087E
:100040001B0100081B0100081B0100081B01000820
:100050001B0100081B0100081B0100081B01000810
:100060001B0100081B0100081B0100089901000882
:100070001B0100081B0100081B0100081B010008F0
:100080001B0100081B0100081B0100081B010008E0
:100090001B0100081B0100081B0100081B010008D0
:1000A0001B0100081B0100081B0100081B010008C0
:1000B0001B0100081B0100081B0100081B010008B0
:1000C0001B0100081B0100081B0100081B010008A0
:1000D0001B0100081B0100081B0100081B01000890
:1000E0001B0100081B0100081B010008DFF80CD0F1
:1000F00000F018F80048004793150008200500207C
:100100000648804706480047FEE7FEE7FEE7FEE7B1
:10011000FEE7FEE7FEE7FEE7FEE7FEE7B9130008AD
:10012000ED000008064C074D06E0E06840F00103D2
:1001300094E8070098471034AC42F6D3FFF7DAFF93
:10014000C8150008E815000870B504460068816805
:10015000C943C9071CD1816821F00101816000F009
:1001600037FB05460FE000BF00F032FB401B0228C2
:1001700009D9A06A40F01000A062E06A40F00100D6
:10018000E062012070BD20688068C043C007EBD0EA
:10019000002070BDFEE70000014800F059B90000E2
:1001A0004000002070470000F8B50024009490F84B
:1001B00024202546012A12D0012280F824204A68F2
:1001C0001F23072A0DD20668776B521E02EB8202AC
:1001D00093409F430B6893401F43776319E00220CD
:1001E000F8BD06680D2A0AD2376BD21F02EB8202D5
:1001F00093409F430B6893401F43376309E0F76ABE
:100200000D3A02EB820293409F430B6893401F43D9
:10021000F7620A68072306680A2A0AD3F7680A3AC7
:1002200002EB420293409F438B6893401F43F76069
:1002300008E0376902EB420293409F438B6893408A
:100240001F4337610A68102A01D0112A20D1124BAE
:1002500002689A4217D193681B0219D4936843F439
:10026000000393600968102912D10C490C4A0968EF
:10027000B1FBF2F101EB8101490000E0491E009160
:100280000029FBD104E0816A41F020018162012450
:1002900080F824502046F8BD002401400C000020C6
:1002A00040420F002DE9F0414FF0000704003D46A9
:1002B0007ED0A06A002628B9E66284F82460204631
:1002C00000F07EF82046FFF73FFFA16A01F0100121
:1002D000014304D0A06A40F01000A06268E0A16A67
:1002E00021F4885141F00201A1626268E169E3688A
:1002F0000A4347EA43010A43A1684FF48077B942B1
:1003000008D0012906D00021D4F814C0BCF1010F97
:1003100002D00AE03946F7E7F3B1A36A43F02003BD
:10032000A362E36A43F00103E3622368D3F804C0E5
:100330002CF4694C4CEA010CC3F804C0236899689A
:10034000DFF870C001EA0C0111439960A168B9425D
:100350000BD0012909D00CE0DFF85CC0A3690CEBDD
:1003600043330B4343F40061DFE7218A0D05A5F514
:1003700080152168CB6A23F470032B43CB6221687C
:1003800089680E4B1940914208D1E662A16A21F0BA
:10039000020141F00101A162BDE8F081A06A20F0F4
:1003A000020040F01000A062E06A40F00100E0624C
:1003B0000120F1E7FDF7E1FF00E0FFFFFE0E1FFF68
:1003C00070B505460068184986B088422AD117489A
:1003D000816941F4007181618069202600F4007018
:1003E00004900320CDE900606946114800F00CF943
:1003F000114C1048206000206060A0608020E06008
:10040000400020618000C4E905064FF44050E061DF
:10041000204600F0C7F818B1732108A001F0A9F830
:100420002C62656206B070BD0024014000100240DD
:100430000008014008000240400000202E2E2F43FB
:100440006F72652F5372632F6164632E6300000027
:100450002DE9F05FC16B0C6801680B68D0F840C0F3
:10046000042202FA0CF2494DDFF824A1494E4A4F0A
:10047000DFF828B1DFF828E122422CD05A072AD52C
:100480000A68920603D40A6822F004020A6001682E
:10049000A94201D1042219E0514501D1402215E0C1
:1004A000B14202D14FF4806210E0B94202D14FF460
:1004B00080420BE0594502D14FF4802206E071459D
:1004C00002D14FF4800201E04FF080622F490839D9
:1004D0004A60C16A3BE04FF0020808FA0CF818EADB
:1004E000040F4FF000094FF0010235D05FEA837826
:1004F00032D50B689B0605D40B6823F00A030B600A
:1005000080F821200168A94201D1022219E0514559
:1005100001D1202215E0B14202D14FF4007210E067
:10052000B94202D14FF400520BE0594502D14FF4C9
:10053000003206E0714502D14FF4001201E04FF0A5
:100540000072124908394A6080F82090816A0029B7
:100550001AD0BDE8F05F0847082505FA0CF52542DA
:1005600012D01B0710D50B6823F00E030B6090F818
:100570004010C36B02FA01F15960826380F82120B8
:1005800080F82090016BE2E7BDE8F09F0800024090
:100590001C0002403000024044000240580002406B
:1005A0006C00024030B548B308C8154914221944FC
:1005B000B1FBF2F18900C1631249816302214177E5
:1005C0001A6843F6F0718A43D0E900142143D0E958
:1005D00002452C4321430469214344692143846932
:1005E000214311431960002141628162C1620163AC
:1005F0004163012242770177084630BD012030BDBA
:10060000F8FFFDBF000002402DE9F84FDFF890A190
:1006100000220AF1040B144601274FF00F090BF1D9
:10062000040E00BF0B6807FA04F52B40AB4274D1EF
:10063000DFF870C14E68A6EB0C0866452BD00DDCC8
:10064000032E34D005DC36B3012E19D0022E2FD163
:100650001BE0112E16D0122E2AD119E0B8F5881FF2
:1006600019D006DCB8F5803F15D0B8F5801F1FD132
:1006700011E0B8F5001F0ED0B8F5041F18D10AE03C
:10068000CA6815E0CA68121D12E0CA6808320FE095
:10069000CA680C320CE08A682AB1012A4FF00802BD
:1006A00003D0456104E0042202E0056100E000227D
:1006B000FF2B01D8064601E000F104064FEA84054D
:1006C00001D9A5F12005D6F800C009FA05F82CEAF1
:1006D000080C02FA05F54CEA050CC6F800C04D6896
:1006E000ED0057D5304DAE6946F00106AE61AD69FB
:1006F00024F0030605F0010500952C4D06EB050CD2
:10070000DCF80850A6074FEA167809FA08F6B54350
:10071000274EB04202D1002610E03BE0254EB04209
:1007200001D101260AE0244EB04201D1022605E0A3
:10073000224EB04201D1032600E0042606FA08F654
:100740002E43CCF808604D68DAF80060ED0355469A
:1007500001D51E4300E09E432E604D68DBF800602B
:10076000AD035D4601D51E4300E09E432E604D68FB
:10077000DEF80060ED02754601D51E4300E09E43A1
:100780002E604D68AD020E4D2E6801D51E4300E06F
:100790009E432E60641C102CFFF444AFBDE8F88F1C
:1007A0000004014000001110001002400000014050
:1007B00000080140000C01400010014000140140FD
:1007C0000C0401400AB1016170470904FBE7000015
:1007D00001488068704700000000002002488168DE
:1007E000027811448160704700000020074810B56E
:1007F000016841F010010160032000F09DF8002025
:1008000000F006F800F024F8002010BD002002409F
:1008100070B50D4D04464FF47A712878B1FBF0F0B5
:100820000A490968B1FBF0F000F00FFC48B9102C40
:1008300007D200222146501E00F05EF800206C60B6
:1008400070BD012070BD0000000000200C000020E1
:10085000214808B5816941F001018161816901F098
:1008600001010091C16941F08051C161C06900F08E
:1008700080500090032000F05FF8002211466FF0D6
:100880000B0000F039F8002211466FF00A0000F06A
:1008900033F8002211466FF0090000F02DF8002215
:1008A0001146501F00F028F800221146101F00F0DA
:1008B00023F800221146901E00F01EF80022114677
:1008C000501E00F019F80548416821F0E06141F040
:1008D0000071416008BD00000010024000000140AE
:1008E00000F01F02012191404009800000F1E0204A
:1008F000C0F8001170470000F0B40E4B1B680C46A6
:10090000C3F30223C3F10705042D00D90425191DE3
:10091000072901D2002300E0DB1E012606FA05F1BB
:10092000491E214099409E40761E16403143F0BC3E
:1009300000F0ECBC0CED00E0064900F0070208688E
:100940004FF6FF03184040EA0220034A10430860B4
:10095000704700000CED00E00000FA052DE9F843B7
:1009600005460078354CC00754D0E0690026C00029
:1009700008D4E06940F08050E061E069012600F0B1
:10098000805000902E480168C90512D40168804645
:1009900041F480710160FFF71BFF074605E000BFCF
:1009A000FFF716FFC01B642823D8D8F80000C00545
:1009B000F6D5206A10F4407021D0A98801F4407166
:1009C00081421CD0206A1F49012220F440700A6035
:1009D00000220A602062C00711D0FFF7F9FE074627
:1009E00041F2883808E000BFFFF7F2FEC11B414525
:1009F00002D90320BDE8F883206A8007F4D5206A75
:100A0000696820F44070084320621EB1E06920F05C
:100A10008050E0612878800705D56068A96820F4D7
:100A20004040084360602878C00605D56068E968E2
:100A300020F48000084360600020DBE700100240E3
:100A400000700040400442422DE9F047DFF83C814D
:100A500005460E46D8F8000000F00700B0420CD260
:100A6000D8F8001021F007013143C8F80010D8F879
:100A7000000000F00700B04263D12878444C8007A2
:100A800005D56068A96820F0F00008436060287808
:100A9000C00745D06868012816D02168022816D002
:100AA000890700294DDA616821F003010143616083
:100AB000FFF78EFE6968074641F2883001290FD0A2
:100AC0000229814619D027E021688903E9E78901D5
:100AD000E7E700BFFFF77CFEC11B494501D918E0DD
:100AE00081466068C0F381000128F3D118E000BF9F
:100AF000FFF76EFEC11B49450BD86068C0F381004B
:100B00000228F5D10CE000BFFFF762FEC11B49458A
:100B100002D90320BDE8F087606810F00C0FF3D114
:100B2000D8F80010404601F00701B1420BD9016826
:100B300021F0070131430160006800F00700B04276
:100B400001D00120E6E72878400705D56068E9680C
:100B500020F4E060084360602878000706D56068EC
:100B6000296920F4605040EAC100606000F03CF860
:100B70006168084AC1F30311515CC8400649086026
:100B80000020FFF745FE0020C4E7000000200240DF
:100B900000100240B01500080C0000200148006859
:100BA000704700000C0000200448054900684968AF
:100BB000044AC1F30221515CC84070470C00002078
:100BC00000100240C0150008044805490068496843
:100BD000044AC1F3C221515CC84070470C00002098
:100BE00000100240C015000812A185B00FC98DE8A1
:100BF0000F0014A0144A006804905168134801F0D3
:100C00000C03042B10D0082B0ED1C1F38343C9036E
:100C10001DF803000AD5516804AAC1F34041515C94
:100C20000A4A5043B0FBF1F005B070470849484309
:100C3000FAE7000002030405060708090A0B0C0D79
:100C40000E0F1010010200000010024000127A0086
:100C500000093D002DE9F84F04460078B94DC00762
:100C600048D06868C0F38100012807D06868C0F3E5
:100C70008100022809D16868C00306D5286880036E
:100C800038D5606800286FD034E06068B0F5803FE8
:100C90000BD010B1B0F5A02F11D0286820F480300F
:100CA0002860286820F4802002E0286840F4803022
:100CB0002860606888B1FFF78BFD064609E0286868
:100CC00040F480202860F0E7FFF782FD801B642855
:100CD00075D828688003F7D50CE0FFF779FD064644
:100CE00005E000BFFFF774FD801B6428F0D828687A
:100CF0008003F7D42078944E80074FF001094FF01D
:100D000000083BD5686810F00C0F07D06868C0F386
:100D10008100022809D16868C00306D428688007CA
:100D200014D5206901281FD110E02069B0B1C6F8A0
:100D30000090FFF74DFD074605E000BFFFF748FDB7
:100D4000C01B0228C4D828688007F7D528686169C5
:100D500020F0F80040EAC10028600FE0C6F80080EB
:100D6000FFF736FD074606E0E9E000BFFFF730FD7C
:100D7000C01B022823D828688007F7D420780007F2
:100D80002CD57248A169D9B1C0F80090FFF720FDB9
:100D9000074604E0FFF71CFDC01B02280FD8686A55
:100DA0008007F7D56A484FF4FA510068B0FBF1F0BC
:100DB000009000BF0098411E0091FAD20EE080E042
:100DC000C0F80080FFF704FD074604E0FFF700FDD0
:100DD000C01B022875D8686A8007F7D420784007BE
:100DE00060D5E8690027C00008D4E86940F0805069
:100DF000E861E869012700F08050009055480168DB
:100E0000C90513D40168834641F480710160FFF77E
:100E1000DFFC824606E000BFFFF7DAFCA0EB0A0029
:100E200064284ED8DBF80000C005F5D5E06801283D
:100E30000AD008B1052813D0286A20F001002862E2
:100E4000286A20F0040002E0286A40F001002862CD
:100E5000E06841F2883B98B1FFF7BAFC82460BE0AC
:100E6000286A40F004002862EEE700BFFFF7B0FCFC
:100E7000A0EB0A0159455AD8286A8007F6D50CE03C
:100E8000FFF7A6FC824605E0FFF7A2FCA0EB0A01F3
:100E900059454CD8286A8007F6D41FB1E86920F07C
:100EA0008050E861E06988B36968C1F38101022973
:100EB00045D00228C6F8608004D0FFF789FC0446BC
:100EC00038E034E0FFF784FC074604E0FFF780FCDD
:100ED000C01B02282BD828688001F7D4206AB0F5FF
:100EE000803F05D16868A16820F40030084368603D
:100EF000D4E908010843696821F474110843686063
:100F0000C6F86090FFF764FC044606E015E000BFF9
:100F1000FFF75EFC001B022809D828688001F7D57E
:100F20000BE000BFFFF754FC001B022802D903208E
:100F3000BDE8F88F28688001F4D40020F8E701208C
:100F4000F6E70000001002400000424280044242E6
:100F50000C0000200070004070B5040005D0002592
:100F6000A56294F8510010B104E0012070BD204644
:100F700000F034F8022084F851002068016821F064
:100F800040010160D4E901010843D4E9031211438F
:100F9000084361690843218B01F400710843E1694A
:100FA0000843216A0843A16A084321680860A069D0
:100FB000042101EA1040616A084321684860216801
:100FC000E06A08612068C16921F40061C16165655A
:100FD000012084F85100002070BD000000B50068B9
:100FE0000F4985B0884219D10E48816941F480517A
:100FF00081618069694600F4805004902820009047
:1010000002200190032003900748FFF7FDFA0748EC
:10101000416841F0E06141F00101416005B000BD6F
:101020000030014000100240000C0140000001406F
:101030004FF0E0210428086903D020F00400086183
:10104000704740F00400FAE7704710B5401EB0F159
:10105000807F01D3012010BD4FF0E02460610F219B
:10106000601700F053F90020A061072020610020E4
:1010700010BD10B5FFF7E8FF10BD70B5040004D037
:1010800094F83900002510B106E0012070BD84F805
:101090003850204600F022F8242084F839002068D7
:1010A000C16821F40051C160204600F0A9F9206810
:1010B000016921F4904101612068416921F02A0110
:1010C00041612068C16841F40051C160E56320209E
:1010D00084F8390084F83A00002070BD10B500682B
:1010E000114986B088421DD11048816941F4804180
:1010F000816180690E4C00F4804004904FF40070D0
:101100000090022001900320039069462046FFF7DB
:101110007BFA00212015CDE90001029169462046A5
:10112000FFF772FA06B010BD00380140001002400F
:1011300000080140FEE700003EB5124810490025B6
:1011400001600124C0E90254456145604FF460210B
:101150000461C161FFF7A6F818B145210AA000F0AB
:1011600008FA05208DE8310069460648FFF71CF8AB
:10117000002803D04F2104A000F0FBF93EBD000081
:1011800000240140100000202E2E2F436F72652F87
:101190005372632F6164632E63000000094808B531
:1011A000416941F0010141614069002200F0010004
:1011B000009011460B20FFF79FFBBDE808400B2075
:1011C000FFF78EBB001002402DE9F0411E4886B0AB
:1011D000816941F020018161816901F02001049160
:1011E000816941F004018161816901F00401049188
:1011F000816941F0080181618069144F00F00800A5
:101200004FF400440490002221463846FFF7DAFAF2
:10121000DFF83C800022C0214046FFF7D3FA00945B
:1012200001AA01240025032682E870006946384699
:10123000FFF7EAF9C0208DE8710069464046FFF7E4
:10124000E3F906B0BDE8F08100100240000801405B
:10125000000C0140124810B5104901604FF4827132
:1012600041604FF4004181600021C1604FF4007281
:101270000161C0E905123822C0E90721416281629B
:101280000A21C162FFF768FE002805D0BDE81040C2
:10129000452104A000F06DB910BD000000300140F0
:1012A000840000202E2E2F436F72652F5372632F00
:1012B0007370692E630000000D4810B50B49016082
:1012C0004FF4E1314160002181600C22C160C0E92E
:1012D00004128161C161FFF7D0FE002805D0BDE88E
:1012E0001040422103A000F044B910BD0038014075
:1012F000DC0000202E2E2F436F72652F5372632F58
:1013000075736172742E6300FEE770470907090E5A
:10131000002806DA00F00F0000F1E02080F8141D2C
:10132000704700F1E02080F8001470477047704764
:1013300010B5FFF753FABDE81040FFF79ABE30B57D
:1013400093B0022401200490009410200590002501
:101350004FF44010CDE9085007946846FFF77AFC37
:1013600000B1FEE70AA90F2081E831004FF4806048
:10137000CDE90D0502210AA8FFF766FB00B1FEE7E3
:101380004FF4804011900F940FA8FFF7E7FA00B1D7
:10139000FEE7FFF703FC4FF47A71B0FBF1F0FFF7C3
:1013A00054FE0420FFF744FE00221146501EFFF7B2
:1013B000A3FA13B030BD00000D48016841F00101EF
:1013C000016041680B4A1140416001680A4A1140BE
:1013D0000160016821F480210160416821F4FE016F
:1013E00041604FF41F0181600449C00308607047E9
:1013F000001002400000FFF8FFFFF6FE08ED00E0DD
:101400002DE9F041044600680169E26821F4405189
:10141000114301612169A06808436169084321689B
:10142000CA6841F20C639A430243CA60206841696A
:10143000A26921F44071114341614C49206864253F
:10144000322688423CD1FFF7BFFB00EBC00101EB25
:10145000001061688900B0FBF1F7FFF7B5FB00EB06
:10146000C00101EB00106168B0468900B0FBF1F0EB
:10147000B0FBF5F06FF01801484307EB800106EB75
:101480000110B0FBF5F000F0F006FFF79DFB00EB5C
:10149000C00101EB001061688900B0FBF1F0B0FB06
:1014A000F5F006EB0016FFF78FFB00EBC00101EB38
:1014B000001061688900B0FBF1F7FFF785FB3BE0A6
:1014C000FFF772FB00EBC00101EB001061688900BF
:1014D000B0FBF1F7FFF768FB00EBC00101EB001078
:1014E0006168B0468900B0FBF1F0B0FBF5F06FF039
:1014F0001801484307EB800106EB0110B0FBF5F043
:1015000000F0F006FFF750FB00EBC00101EB00100C
:1015100061688900B0FBF1F0B0FBF5F006EB001656
:10152000FFF742FB00EBC00101EB0010616889008E
:10153000B0FBF1F7FFF738FB00EBC00101EB001047
:1015400061688900B0FBF1F0B0FBF5F06FF01801B5
:10155000484307EB800108EB0110B0FBF5F0216870
:1015600000F00F0030448860BDE8F0810038014091
:10157000FEE7FEE702E008C8121F08C1002AFAD100
:1015800070477047002001E001C1121F002AFBD103
:101590007047FFF72BF9FFF7D2FEFFF715FEFFF7B5
:1015A000FDFDFFF7C9FDFFF787FEFFF753FEFEE7DE
:1015B0000000000000000000010203040607080903
:1015C0000000000001020304E815000800000020EC
:1015D0001000000074150008F81500081000002025
:1015E0001005000084150008010000001000000034
:0815F0000000000000A24A0403
:04000005080000ED02
:00000001FF
