:020000040800F2
:10000000200500200101000837140008991200089B
:1000100035140008B9010008711A0008000000003A
:10002000000000000000000000000000411800086F
:10003000C9010008000000008917000843180008E3
:100040001B0100081B0100081B0100081B01000820
:100050001B0100081B0100081B0100081B01000810
:100060001B0100081B0100081B010008BD0100085E
:100070001B0100081B0100081B0100081B010008F0
:100080001B0100081B0100081B0100081B010008E0
:100090001B0100081B0100081B0100081B010008D0
:1000A0001B0100081B0100081B0100081B010008C0
:1000B0001B0100081B0100081B0100081B010008B0
:1000C0001B0100081B0100081B0100081B010008A0
:1000D0001B0100081B0100081B0100081B01000890
:1000E0001B0100081B0100081B010008DFF80CD0F1
:1000F00000F02AF800480047911A00082005002067
:100100000648804706480047FEE7FEE7FEE7FEE7B1
:10011000FEE7FEE7FEE7FEE7FEE7FEE7B9180008A8
:10012000ED000008D2B201E000F8012B491EFBD21D
:1001300070470022F6E710B513460A4604461946F2
:10014000FFF7F0FF204610BD064C074D06E0E068C3
:1001500040F0010394E8070098471034AC42F6D30E
:10016000FFF7C8FF702300089023000870B504460D
:1001700000688168C943C9071CD1816821F0010169
:10018000816000F049FB05460FE000BF00F044FB32
:10019000401B022809D9A06A40F01000A062E06A62
:1001A00040F00100E062012070BD20688068C0431B
:1001B000C007EBD0002070BDFEE70000014800F052
:1001C00059B90000440000207047FEE7F8B500244C
:1001D000009490F824202546012A12D0012280F8AC
:1001E00024204A681F23072A0DD20668776B521E07
:1001F00002EB820293409F430B6893401F43776357
:1002000019E00220F8BD06680D2A0AD2376BD21F0A
:1002100002EB820293409F430B6893401F43376376
:1002200009E0F76A0D3A02EB820293409F430B68A4
:1002300093401F43F7620A68072306680A2A0AD315
:10024000F7680A3A02EB420293409F438B6893405F
:100250001F43F76008E0376902EB420293409F4377
:100260008B6893401F4337610A68102A01D0112A16
:1002700020D1124B02689A4217D193681B0219D4FD
:10028000936843F4000393600968102912D10C4964
:100290000C4A0968B1FBF2F101EB8101490000E071
:1002A000491E00910029FBD104E0816A41F0200140
:1002B0008162012480F824502046F8BD00240140CA
:1002C0001000002040420F002DE9F0414FF00007E0
:1002D00004003D467ED0A06A002628B9E66284F874
:1002E0002460204600F07EF82046FFF73FFFA16A19
:1002F000C90600D420B1A06A40F01000A06269E0F5
:10030000A16A21F4885141F00201A1626268E169A9
:10031000E3680A4347EA43010A43A1684FF4807740
:10032000B94209D0012907D05FF00001D4F814C008
:10033000BCF1010F02D00AE03946F7E7F3B1A36A36
:1003400043F02003A362E36A43F00103E3622368FE
:10035000D3F804C02CF4694C4CEA010CC3F804C077
:1003600021688B68DFF870C003EA0C0313438B60CD
:10037000A168B9420BD0012909D00CE0DFF85CC0BC
:10038000A3690CEB43330B4343F40061DFE7218A9D
:100390000D05A5F580152168CB6A23F470032B4366
:1003A000CB62216889680E4B1940914208D1E66200
:1003B000A16A21F0020141F00101A162BDE8F081D2
:1003C000A06A20F0020040F01000A062E06A40F055
:1003D0000100E0620120F1E7FDF7E1FF00E0FFFF2F
:1003E000FE0E1FFFF0B585B000260546009601966B
:1003F0000296039600681A4988422FD119498869E4
:1004000040F400708861886900F400700490886985
:1004100040F0040088618869202700F004000490FF
:100420000320CDE9007069460F4800F011F9104C27
:100430000E48C4E900068020C4E902604000206143
:100440008000C4E905074FF44050E061204600F009
:10045000BBF808B1FFF7B9FE2C62656205B0F0BDCC
:100460000024014000100240000801400800024042
:10047000440000202DE9F05FC16B0C6801680B6837
:10048000D0F840C0042202FA0CF2494DDFF824A152
:10049000494E4A4FDFF828B1DFF828E122422CD03C
:1004A0005A072AD50A68920603D40A6822F0040281
:1004B0000A600168A94201D1042219E0514501D125
:1004C000402215E0B14202D14FF4806210E0B942FF
:1004D00002D14FF480420BE0594502D14FF4802203
:1004E00006E0714502D14FF4800201E04FF08062D6
:1004F0002F4908394A60C16A3BE04FF0020808FA08
:100500000CF818EA040F4FF000094FF0010235D043
:100510005FEA837832D50B689B0605D40B6823F01D
:100520000A030B6080F821200168A94201D1022250
:1005300019E0514501D1202215E0B14202D14FF41A
:10054000007210E0B94202D14FF400520BE059455D
:1005500002D14FF4003206E0714502D14FF400128F
:1005600001E04FF00072124908394A6080F820908B
:10057000816A00291AD0BDE8F05F0847082505FA0E
:100580000CF5254212D01B0710D50B6823F00E0383
:100590000B6090F84010C36B02FA01F1596082635E
:1005A00080F8212080F82090016BE2E7BDE8F09F01
:1005B000080002401C00024030000240440002409B
:1005C000580002406C00024030B548B308C81549D5
:1005D00014221944B1FBF2F18900C163124981630D
:1005E000022141771A6843F6F0718A43D0E900147A
:1005F0002143D0E902452C43214304692143446946
:1006000021438469214311431960002141628162C1
:10061000C16201634163012242770177084630BD20
:10062000012030BDF8FFFDBF0000024070B5044658
:1006300000F0F2F80546601C02D00448007804443B
:1006400000F0EAF8401BA042FAD370BD040000207D
:100650002DE9F84FDFF890A100220AF1040B1446AF
:1006600001274FF00F090BF1040E00BF0B6807FACA
:1006700004F52B40AB4274D1DFF870C14E68A6EB95
:100680000C0866452BD00DDC032E34D005DC36B3C8
:10069000012E19D0022E2FD11BE0112E16D0122EB2
:1006A0002AD119E0B8F5881F19D006DCB8F5803FCB
:1006B00015D0B8F5801F1FD111E0B8F5001F0ED07E
:1006C000B8F5041F18D10AE0CA6815E0CA68121DFF
:1006D00012E0CA6808320FE0CA680C320CE08A687F
:1006E0002AB1012A4FF0080203D0456104E0042238
:1006F00002E0056100E00022FF2B01D8064601E080
:1007000000F104064FEA840501D9A5F12005D6F8C9
:1007100000C009FA05F82CEA080C02FA05F54CEAC3
:10072000050CC6F800C04D68ED0057D5304DAE69D8
:1007300046F00106AE61AD6924F0030605F001053F
:1007400000952C4D06EB050CDCF80850A6074FEA87
:10075000167809FA08F6B543274EB04202D10026B2
:1007600010E03BE0254EB04201D101260AE0244EC4
:10077000B04201D1022605E0224EB04201D103264B
:1007800000E0042606FA08F62E43CCF808604D680F
:10079000DAF80060ED03554601D51E4300E09E43A4
:1007A0002E604D68DBF80060AD035D4601D51E4349
:1007B00000E09E432E604D68DEF80060ED02754655
:1007C00001D51E4300E09E432E604D68AD020E4DE4
:1007D0002E6801D51E4300E09E432E60641C102C41
:1007E000FFF444AFBDE8F88F000401400000111091
:1007F000001002400000014000080140000C0140D0
:1008000000100140001401400C0401400AB10161D4
:1008100070470904FBE7000001488068704700004A
:10082000040000200248816802781144816070470A
:1008300004000020074810B5016841F01001016074
:10084000032000F073F8002000F006F800F024F810
:10085000002010BD0020024070B50D4D04464FF43D
:100860007A712878B1FBF0F00A490968B1FBF0F021
:1008700000F094FC48B9102C07D200222146501EEB
:1008800000F034F800206C6070BD012070BD0000E5
:1008900004000020100000200C4808B5816941F0D8
:1008A00001018161816901F001010091C16941F09B
:1008B0008051C161C06900F08050009004484168D7
:1008C00021F0E06141F00071416008BD001002407C
:1008D0000000014000F01F0201219140400980000A
:1008E00000F1E020C0F8001170470000F0B40E4B9A
:1008F0001B680C46C3F30223C3F10705042D00D97E
:100900000425191D072901D2002300E0DB1E012662
:1009100006FA05F1491E214099409E40761E164078
:100920003143F0BC00F088BD0CED00E0064900F05A
:10093000070208684FF6FF03184040EA0220034A06
:1009400010430860704700000CED00E00000FA055D
:100950002DE9F84305460078354CC00754D0E069CE
:100960000026C00008D4E06940F08050E061E069F2
:10097000012600F0805000902E480168C90512D46D
:100980000168804641F480710160FFF745FF07462A
:1009900005E000BFFFF740FFC01B642823D8D8F84C
:1009A0000000C005F6D5206A10F4407021D0A98857
:1009B00001F4407181421CD0206A1F49012220F4B9
:1009C00040700A6000220A602062C00711D0FFF761
:1009D00023FF074641F2883808E000BFFFF71CFFFD
:1009E000C11B414502D90320BDE8F883206A800776
:1009F000F4D5206A696820F44070084320621EB173
:100A0000E06920F08050E0612878800705D56068B3
:100A1000A96820F44040084360602878C00605D5E6
:100A20006068E96820F48000084360600020DBE72C
:100A30000010024000700040400442422DE9F0479F
:100A4000DFF83C8105460E46D8F8000000F00700AC
:100A5000B0420CD2D8F8001021F007013143C8F899
:100A60000010D8F8000000F00700B04263D12878E9
:100A7000444C800705D56068A96820F0F000084361
:100A800060602878C00745D06868012816D02168C2
:100A9000022816D0890700294DDA616821F0030188
:100AA00001436160FFF7B8FE6968074641F288308C
:100AB00001290FD00229814619D027E02168890336
:100AC000E9E78901E7E700BFFFF7A6FEC11B49453B
:100AD00001D918E081466068C0F381000128F3D194
:100AE00018E000BFFFF798FEC11B49450BD86068AE
:100AF000C0F381000228F5D10CE000BFFFF78CFEA7
:100B0000C11B494502D90320BDE8F087606810F099
:100B10000C0FF3D1D8F80010404601F00701B142A4
:100B20000BD9016821F0070131430160006800F032
:100B30000700B04201D00120E6E72878400705D53C
:100B40006068E96820F4E060084360602878000786
:100B500006D56068296920F4605040EAC1006060F1
:100B600000F036F86168084AC1F30311515CC840CF
:100B7000064908600020FFF76FFE0020C4E7000070
:100B800000200240001002405823000810000020FE
:100B90000448054900684968044AC1F30221515CD0
:100BA000C840704710000020001002406823000871
:100BB0000448054900684968044AC1F3C221515CF0
:100BC000C840704710000020001002406823000851
:100BD00012A185B00FC98DE80F0014A0144A006857
:100BE00004905168134801F00C03042B10D0082B1B
:100BF0000ED1C1F38343C9031DF803000AD5516820
:100C000004AAC1F34041515C0A4A5043B0FBF1F0E1
:100C100005B0704708494843FAE70000020304059D
:100C2000060708090A0B0C0D0E0F10100102000038
:100C30000010024000127A0000093D002DE9F84F33
:100C400004460078B94DC00748D06868C0F38100F9
:100C5000012807D06868C0F38100022809D16868BC
:100C6000C00306D52868800338D5606800286FD097
:100C700034E06068B0F5803F0BD010B1B0F5A02F24
:100C800011D0286820F480302860286820F4802063
:100C900002E0286840F480302860606888B1FFF77F
:100CA000BBFD064609E0286840F480202860F0E794
:100CB000FFF7B2FD801B642875D828688003F7D53C
:100CC0000CE0FFF7A9FD064605E000BFFFF7A4FD15
:100CD000801B6428F0D828688003F7D42078944ECD
:100CE00080074FF001094FF000083BD5686810F00D
:100CF0000C0F07D06868C0F38100022809D168682A
:100D0000C00306D42868800714D5206901281FD1A4
:100D100010E02069B0B1C6F80090FFF77DFD0746EE
:100D200005E000BFFFF778FDC01B0228C4D8286883
:100D30008007F7D52868616920F0F80040EAC10013
:100D400028600FE0C6F80080FFF766FD074606E062
:100D5000E9E000BFFFF760FDC01B022823D8286828
:100D60008007F7D4207800072CD57248A169D9B143
:100D7000C0F80090FFF750FD074604E0FFF74CFD78
:100D8000C01B02280FD8686A8007F7D56A484FF45D
:100D9000FA510068B0FBF1F0009000BF0098411ECE
:100DA0000091FAD20EE080E0C0F80080FFF734FD39
:100DB000074604E0FFF730FDC01B022875D8686ABB
:100DC0008007F7D42078400760D5E8690027C00085
:100DD00008D4E86940F08050E861E869012700F034
:100DE0008050009055480168C90513D401688346B6
:100DF00041F480710160FFF70FFD824606E000BFFD
:100E0000FFF70AFDA0EB0A0064284ED8DBF80000CB
:100E1000C005F5D5E06801280AD008B1052813D02F
:100E2000286A20F001002862286A20F0040002E00D
:100E3000286A40F001002862E06841F2883B98B1DE
:100E4000FFF7EAFC82460BE0286A40F004002862C3
:100E5000EEE700BFFFF7E0FCA0EB0A0159455AD8C6
:100E6000286A8007F6D50CE0FFF7D6FC824605E03D
:100E7000FFF7D2FCA0EB0A0159454CD8286A80073D
:100E8000F6D41FB1E86920F08050E861E06988B3CA
:100E90006968C1F38101022945D00228C6F8608043
:100EA00004D0FFF7B9FC044638E034E0FFF7B4FCA7
:100EB000074604E0FFF7B0FCC01B02282BD82868C7
:100EC0008001F7D4206AB0F5803F05D16868A16839
:100ED00020F4003008436860D4E9080108436968D9
:100EE00021F4741108436860C6F86090FFF794FC21
:100EF000044606E015E000BFFFF78EFC001B022849
:100F000009D828688001F7D50BE000BFFFF784FC03
:100F1000001B022802D90320BDE8F88F2868800151
:100F2000F4D40020F8E70120F6E7000000100240AA
:100F30000000424280044242100000200070004045
:100F400070B5040005D00025A56294F8510010B1D9
:100F500004E0012070BD204600F034F8022084F83F
:100F600051002068016821F040010160D4E90101CD
:100F70000843D4E903121143084361690843218BF4
:100F800001F400710843E1690843216A0843A16A3A
:100F9000084321680860A069042101EA1040616AE1
:100FA0000843216848602168E06A08612068C169D7
:100FB00021F40061C1616565012084F851000020C1
:100FC00070BD000000B585B0002100910191029133
:100FD000039100681349884221D11348816941F483
:100FE00080518161816901F480510491816941F0EE
:100FF000080181618069694600F00800049028209A
:10100000009002200190032003900848FFF720FB86
:101010000748416841F0E06141F00101416005B0DD
:1010200000BD00000030014000100240000C0140F3
:10103000000001402DE9F84F044690F850000026CA
:10104000994617460D4601280DD04FF0010B84F844
:1010500050B0FFF7E1FB804694F85100B2460128FA
:1010600004D0022694E00220BDE8F88F002D7BD04A
:10107000002F79D0032084F85100C4F854A02563D0
:10108000A786E786C4F838A0A4F83CA0A4F83EA040
:10109000C4F844A0C4F840A0A068B0F5004F04D143
:1010A0002068016841F480410160206801684906B8
:1010B00003D4016841F040010160E068B0F5006FC1
:1010C000606804D030B3E08E012823D03EE010B138
:1010D000E08E01281AD135F8021B206805E020684F
:1010E0008168890706D535F8021BC160E08E401E75
:1010F000E0860BE0B9F1000F34D0B9F1FF3F05D025
:10110000FFF78AFBA0EB080149452BD2E08E0028AF
:10111000E5D11EE0216815F8010B087306E0206890
:101120008168890706D515F8011B0173E08E401E02
:10113000E0860BE0B9F1000F14D0B9F1FF3F05D004
:10114000FFF76AFBA0EB080149450BD2E08E0028AF
:10115000E5D14B46012202212046CDF8008000F067
:1011600024FB10B1032613E011E042464946204615
:1011700000F00BFB18B101262020606508E0A06894
:1011800018B92068C16880680090606D00B10126C0
:1011900084F851B084F850A0304665E710B5401E81
:1011A000B0F1807F01D3012010BD4FF0E0246061D9
:1011B0000F21601700F040F90020A0610720206196
:1011C000002010BD70B5040004D094F8390000254B
:1011D00010B106E0012070BD84F83850204600F0C0
:1011E00023F8242084F839002068C16821F40051D4
:1011F000C160204600F084FB2068016921F4904121
:1012000001612068416921F02A0141612068C168BB
:1012100041F40051C160E563202084F8390084F86E
:101220003A00002070BD000030B585B00024009465
:1012300001940294039400681449884224D114480C
:10124000816941F480418161816901F480410491A7
:10125000816941F00401816180690E4D00F0040054
:1012600004904FF40070009002200190032003903E
:1012700069462846FFF7ECF92815CDE900046946D0
:1012800028460294FFF7E4F905B030BD003801406C
:101290000010024000080140FEE700003EB50024B7
:1012A0001148009401940F49029401600125C0E99E
:1012B0000245446105614FF460214460C161FFF75C
:1012C00003F808B1FEF781FF0520CDE90005694666
:1012D00002940548FEF77AFF002801D0FEF775FF5B
:1012E0003EBD00000024014014000020094808B55C
:1012F000416941F0010141614069002200F00100B3
:10130000009011460B20FFF7F1FABDE808400B20D2
:10131000FFF7E0BA001002402DE9F04186B000244A
:1013200020480094019402940394816941F02001C3
:101330008161816901F020010491816941F004011A
:101340008161816901F004010491816941F0080122
:1013500081618069144F00F008004FF4004504904B
:10136000002229463846FFF751FADFF84080002274
:10137000C0214046FFF74AFA00950326012503964F
:10138000CDE9015469463846FFF762F9C020CDE93E
:101390000005CDE9024669464046FFF759F906B017
:1013A000BDE8F0810010024000080140000C01403F
:1013B000114810B50F4901604FF4827141604FF43C
:1013C0000041816000210222C0E903121202C0E93B
:1013D00005123822C0E90721416281620A21C162F7
:1013E000FFF7AEFD002803D0BDE81040FEF7EDBECC
:1013F00010BD000000300140880000200C4810B5EE
:101400000A4901604FF4E1314160002181600C2202
:10141000C160C0E904128161C161FFF7D3FE0028F9
:1014200003D0BDE81040FEF7D0BE10BD003801402B
:10143000E0000020FEE770470907090E002806DAE1
:1014400000F00F0000F1E02080F8141D704700F15B
:10145000E02080F80014704770B5002404F1B0005B
:10146000C0B2002100F066F90021084600F062F9E0
:101470000021102000F05EF900250121002000F07D
:1014800059F96D1CEDB2802DF7D3641CE4B2082C21
:10149000E4D370BD10B5494C012240212046FFF72E
:1014A000B5F96420FFF7C2F8002240212046FFF77B
:1014B000ADF96420FFF7BAF8012240212046FFF77A
:1014C000A5F90021AE2000F035F90021084600F012
:1014D00031F90021102000F02DF90021402000F00A
:1014E00029F90021812000F025F90021CF2000F00A
:1014F00021F90021A12000F01DF90021C82000F0F1
:1015000019F90021A62000F015F90021A82000F00B
:1015100011F900213F2000F00DF90021D32000F047
:1015200009F90021084600F005F90021D52000F056
:1015300001F90021802000F0FDF80021D92000F001
:10154000F9F80021F12000F0F5F80021DA2000F090
:10155000F1F80021122000F0EDF80021DB2000F06E
:10156000E9F80021402000F0E5F80021202000F0FB
:10157000E1F80021022000F0DDF800218D2000F0CC
:10158000D9F80021142000F0D5F80021A42000F0A3
:10159000D1F80021A62000F0CDF80021AF2000F006
:1015A000C9F80021AF2000F0C5F8FFF755FF002172
:1015B000BDE81040084600F003B80000000C0140F0
:1015C00010B50446B031C8B2002100F0B3F81020C5
:1015D00040EA1410002100F0ADF804F00F00BDE85F
:1015E000104040F00100002100F0A4B82DE9F041C6
:1015F00015460E460746FFF7E3FF0F48002400EBB1
:1016000085150121285D00F095F8641CE4B2102CCA
:10161000F7D3761CF1B23846FFF7D2FF0024281921
:10162000012190F8200000F085F8641CE4B2102C31
:10163000F5D3BDE8F0810000982100082DE9F041C4
:10164000203A00240D468046D7B27F2803D90020D7
:101650008D1C8046EDB22946FFF7B2FF0F4E00BF4A
:1016600004EB07100121305C00F064F8641CE4B264
:10167000082CF5D36D1CE9B24046FFF7A1FF00240A
:1016800004EB071030440121007A00F053F8641C89
:10169000E4B2082CF4D3BDE8F0810000A81B0008D8
:1016A0002DE9F0478046002608981D4691468A4657
:1016B0003446470821E0281B401EC1B20A2000F032
:1016C0006BFAB9FBF0F00A21B0FBF1F201FB12005A
:1016D00026B9691E8C4201DA30B101263030C2B21F
:1016E00007FB0480C0B203E007FB0480C0B22022E5
:1016F0005146FFF7A3FF641CE4B2AC42DBD3BDE864
:10170000F0872DE9F04117460E46044600250CE00F
:1017100031462046FFF792FF0834E4B2782C02D914
:101720000024B61CF6B26D1CEDB27A5D002AEFD132
:10173000BDE8F08173B5114C09B1012200E000222F
:1017400080212046FFF762F80D4E4FF4004500223D
:1017500029463046FFF75AF80A230122694609480C
:10176000FFF768FC012229463046FFF74FF80122B7
:1017700080212046FFF74AF87CBD0000000C0140A4
:101780000008014088000020704738B50B460092E1
:1017900004460022802100F008F8002804D0606D83
:1017A00040F020006065032038BD2DE9F0411D4662
:1017B00017460E460446DDF8188035E0681C33D025
:1017C0002DB1FFF729F8A0EB0800A8422CD3206820
:1017D000416821F0E00141606068B0F5827F0BD183
:1017E000A068B0F5004F02D0B0F5806F04D120683A
:1017F000016821F040010160A06AB0F5005F0AD1E4
:10180000206801684DF6FF72114001602068016890
:1018100041F400510160012084F85100002084F857
:1018200050000320BDE8F0812068806836EA00009F
:1018300004D00020B842C1D10020F3E70120F9E72D
:101840007047FEF7EFBF30B593B028216846FEF72A
:1018500070FC14210AA8FEF76CFC0024022501206C
:101860000F94049000951020059012944FF44010AE
:10187000CDE908401194109407956846FFF7DEF90A
:1018800000B1FEE70F20CDE90A054FF48060CDE9F5
:101890000C4002210AA80E94FFF7D0F800B1FEE731
:1018A0004FF4804011900F950FA8FFF751F80028D2
:1018B00000D0FEE713B030BD0D48016841F00101D2
:1018C000016041680B4A1140416001680A4A1140B9
:1018D0000160016821F480210160416821F4FE016A
:1018E00041604FF41F0181600449C00308607047E4
:1018F000001002400000FFF8FFFFF6FE08ED00E0D8
:101900002DE9F041044600680169E26821F4405184
:10191000114301612169A068084361690843216896
:10192000CA6841F20C639A430243CA602068416965
:10193000A26921F44071114341614C49206864253A
:10194000322688423CD1FFF733F900EBC00101EBAE
:10195000001061688900B0FBF1F7FFF729F900EB8F
:10196000C00101EB00106168B0468900B0FBF1F0E6
:10197000B0FBF5F06FF01801484307EB800106EB70
:101980000110B0FBF5F000F0F006FFF711F900EBE5
:10199000C00101EB001061688900B0FBF1F0B0FB01
:1019A000F5F006EB0016FFF703F900EBC00101EBC1
:1019B000001061688900B0FBF1F7FFF7F9F83BE030
:1019C000FFF7E6F800EBC00101EB00106168890049
:1019D000B0FBF1F7FFF7DCF800EBC00101EB001002
:1019E0006168B0468900B0FBF1F0B0FBF5F06FF034
:1019F0001801484307EB800106EB0110B0FBF5F03E
:101A000000F0F006FFF7C4F800EBC00101EB001096
:101A100061688900B0FBF1F0B0FBF5F006EB001651
:101A2000FFF7B6F800EBC00101EB00106168890018
:101A3000B0FBF1F7FFF7ACF800EBC00101EB0010D1
:101A400061688900B0FBF1F0B0FBF5F06FF01801B0
:101A5000484307EB800108EB0110B0FBF5F021686B
:101A600000F00F0030448860BDE8F081003801408C
:101A7000FEE702E008C8121F08C1002AFAD1704729
:101A80007047002001E001C1121F002AFBD17047FE
:101A900008B5FEF7CFFEFFF7D6FEFFF73DFCFFF7D8
:101AA00025FCFFF7FBFBFFF7A9FCFFF781FCFFF725
:101AB000F1FCFFF7D1FC2C4C10254FF4FA7600BF57
:101AC000FFF7CAFC002211461046FFF78FFD0122E6
:101AD00000211220FFF78AFD022200212420FFF7B7
:101AE00085FD032200213620FFF780FD042200211E
:101AF0004820FFF77BFD052200215A20FFF776FDE5
:101B0000062200216C20FFF771FD18A2022100209F
:101B1000FFF7F7FD19A204211420FFF7F2FD1AA226
:101B200006210020FFF7EDFD19A206213F20FFF757
:101B3000E8FD227806213020FFF780FD2078401C48
:101B4000C0B220707E2801D920202070C2B20323A9
:101B5000062167200095FFF7A3FD3046FEF766FDDE
:101B6000FFF77AFCACE7000000000020312E33279D
:101B7000204F4C45442054455354000032303134FA
:101B80002F30352F3031000041534349493A00008E
:101B9000434F44453A0000000246012000E0504314
:101BA000491EC9B2FBD270470000000000000000CF
:101BB0000000000000000000000000F8000000002D
:101BC000000000333000000000100C06100C06006E
:101BD000000000000000000040C07840C0784000D5
:101BE000043F04043F040400007088FC0830000037
:101BF000001820FF211E0000F008F000E01800008F
:101C000000211C031E211E0000F008887000000047
:101C10001E2123241927211010160E000000000099
:101C20000000000000000000000000E018040200B6
:101C3000000000071820400000020418E000000027
:101C40000040201807000000404080F08040400025
:101C50000202010F01020200000000F0000000007B
:101C60000101011F0101010000000000000000004F
:101C700080B07000000000000000000000000000C4
:101C8000000101010101010100000000000000004D
:101C900000303000000000000000000080601804E8
:101CA000006018060100000000E010080810E000C5
:101CB000000F102020100F00001010F8000000008E
:101CC0000020203F202000000070080808887000D5
:101CD0000030282422213000003008888848300055
:101CE0000018202020110E000000C02010F8000075
:101CF00000070424243F240000F80888880808000E
:101D00000019212020110E0000E010888818000022
:101D1000000F112020110E0000380808C8380800F4
:101D20000000003F00000000007088080888700074
:101D3000001C222121221C0000E010080810E000F5
:101D40000000312222110F00000000C0C00000007E
:101D500000000030300000000000008000000000A3
:101D6000000080600000000000008040201008009B
:101D70000001020408102000404040404040400064
:101D8000040404040404040000081020408000003F
:101D90000020100804020100007048080808F00044
:101DA0000000003036010000C030C828E810E00014
:101DB0000718272423140B000000C038E00000009F
:101DC000203C23020227382008F888888870000009
:101DD000203F202020110E00C030080808083800DD
:101DE000071820202010080008F808080810E00054
:101DF000203F202020100F0008F88888E8081000F5
:101E0000203F20202320180008F88888E8081000C8
:101E1000203F200003000000C03008080838000000
:101E200007182020221E020008F808000008F80801
:101E3000203F210101213F20000808F80808000088
:101E40000020203F2020000000000808F8080800BB
:101E5000C08080807F00000008F888C02818080033
:101E6000203F20012638200008F80800000000006C
:101E7000203F20202020300008F8F800F8F8080063
:101E8000203F003F003F200008F830C00008F8085D
:101E9000203F200007183F00E01008080810E0006D
:101EA0000F10202020100F0008F808080808F00084
:101EB000203F210101010000E01008080810E000A7
:101EC0000F18242438504F0008F88888888870003C
:101ED000203F2000030C30200070880808083800DC
:101EE0000038202121221C00180808F808081800D2
:101EF0000000203F2000000008F808000008F80853
:101F0000001F202020201F000878880000C8380803
:101F1000000007380E010000F80800F80008F8007B
:101F2000033C0700073C0300081868808068180815
:101F300020302C03032C30200838C800C838080093
:101F40000000203F2000000010080808C8380800E2
:101F50002038262120201800000000FE0202020086
:101F60000000007F40404000000C30C00000000036
:101F7000000000010638C00000020202FE0000005E
:101F8000004040407F000000000004020202040004
:101F90000000000000000000000000000000000041
:101FA0008080808080808080000202040000000029
:101FB0000000000000000000000080808080000021
:101FC0000019242222223F2008F80080800000000F
:101FD000003F112020110E000000008080800000D2
:101FE000000E112020201100000000808088F800E1
:101FF000000E112020103F20000080808080000013
:10200000001F222222221300008080F08888881876
:102010000020203F20200000000080808080800081
:10202000006B94949493600008F800808080000016
:10203000203F210000203F200080989800000000F1
:102040000020203F20200000000000809898000021
:1020500000C08080807F000008F800008080800041
:10206000203F24022D302000000808F80000000066
:102070000020203F20200000808080808080800021
:10208000203F20003F20003F8080008080800000B3
:10209000203F210000203F20000080808080000041
:1020A000001F202020201F00808000808000000072
:1020B00080FFA12020110E000000008080808000A1
:1020C000000E112020A0FF80808080008080800092
:1020D00020203F21200001000000808080808000BF
:1020E0000033242424241900008080E08080000034
:1020F0000000001F20200000808000000080800081
:10210000001F202020103F208080800000808080E1
:1021100000010E3008060100808000800080808071
:102120000F300C030C300F00008080008080800096
:102130000020312E0E3120008080800000808080C1
:1021400080818E7018060100008080808080800071
:102150000021302C2221300000000000807C02028F
:1021600000000000003F404000000000FF000000B1
:1021700000000000FF0000000002027C8000000060
:102180000040403F0000000000060101020204047C
:1021900000000000000000000000F010101010FF10
:1021A00010101010F00000000000000000000000FF
:1021B000000000000000000000000F04040404FF01
:1021C000040404040F0000000000000000000000F0
:1021D00000000000000000004040405F555555756C
:1021E0005555555F404040000000000000000000D1
:1021F00000000000000000000040200F094989791C
:102200000909090F20400000000000000000000044
:10221000000000000000000000FE02424ACA4A4AD4
:10222000CA4A4A4202FE000000000000000000000E
:10223000000000000000000000FF40504C43404000
:102240004F50505C40FF0000000000000000000004
:1022500000000000000000000000F888888888FF67
:1022600088888888F8000000000000000000000056
:10227000000000000000000000001F080808087FA0
:10228000888888889F80F00000000000000000001F
:10229000000000000000000080828282828282E2D0
:1022A000A2928A8682808000000000000000000068
:1022B0000000000000000000000000000040807FDF
:1022C000000000000000000000000000000000000E
:1022D00000000000000000002424A4FEA32200222D
:1022E000CC0000FF00000000000000000000000023
:1022F0000000000000000000080601FF00010404C7
:10230000040404FF020202000000000000000000BC
:102310000000000000000000101010FF109008885E
:102320008888FF88888808000000000000000000FE
:1023300000000000000000000444827F0180804013
:10234000432C10284681800000000000000000009F
:10235000000000000000000000000000000000007D
:10236000010203040607080900000000010203043B
:10237000902300080000002014000000721A0008DA
:10238000A4230008140000200C050000821A000895
:10239000000000000100000010000000000000002C
:0423A00000A24A0449
:04000005080000ED02
:00000001FF
